{
  "_format": "hh-sol-artifact-1",
  "contractName": "LotteryGame",
  "sourceName": "contracts/LotteryGame.sol",
  "abi": [
    {
      "inputs": [
        {
          "internalType": "address",
          "name": "_owner",
          "type": "address"
        },
        {
          "internalType": "address",
          "name": "_manager1",
          "type": "address"
        },
        {
          "internalType": "address",
          "name": "_manager2",
          "type": "address"
        },
        {
          "internalType": "uint256",
          "name": "_lotteryDrawnWaitTime",
          "type": "uint256"
        },
        {
          "internalType": "contract IERC20",
          "name": "_tokenAddress",
          "type": "address"
        }
      ],
      "stateMutability": "nonpayable",
      "type": "constructor"
    },
    {
      "anonymous": false,
      "inputs": [
        {
          "indexed": false,
          "internalType": "uint256",
          "name": "",
          "type": "uint256"
        },
        {
          "indexed": false,
          "internalType": "uint256",
          "name": "",
          "type": "uint256"
        }
      ],
      "name": "Approved",
      "type": "event"
    },
    {
      "anonymous": false,
      "inputs": [
        {
          "indexed": false,
          "internalType": "uint256",
          "name": "",
          "type": "uint256"
        },
        {
          "indexed": false,
          "internalType": "uint256",
          "name": "",
          "type": "uint256"
        }
      ],
      "name": "LotteryCreated",
      "type": "event"
    },
    {
      "anonymous": false,
      "inputs": [
        {
          "indexed": false,
          "internalType": "uint256",
          "name": "",
          "type": "uint256"
        },
        {
          "indexed": false,
          "internalType": "uint256",
          "name": "",
          "type": "uint256"
        }
      ],
      "name": "PriceIncreased",
      "type": "event"
    },
    {
      "anonymous": false,
      "inputs": [
        {
          "indexed": false,
          "internalType": "uint256",
          "name": "",
          "type": "uint256"
        },
        {
          "indexed": false,
          "internalType": "uint256",
          "name": "",
          "type": "uint256"
        }
      ],
      "name": "PrizeIncreased",
      "type": "event"
    },
    {
      "anonymous": false,
      "inputs": [
        {
          "indexed": false,
          "internalType": "uint256",
          "name": "",
          "type": "uint256"
        },
        {
          "indexed": false,
          "internalType": "uint256",
          "name": "",
          "type": "uint256"
        },
        {
          "indexed": false,
          "internalType": "uint256",
          "name": "",
          "type": "uint256"
        },
        {
          "indexed": false,
          "internalType": "address",
          "name": "",
          "type": "address"
        }
      ],
      "name": "WinnerDeclared",
      "type": "event"
    },
    {
      "inputs": [
        {
          "internalType": "uint256",
          "name": "_lotteryId",
          "type": "uint256"
        },
        {
          "internalType": "uint256",
          "name": "price",
          "type": "uint256"
        }
      ],
      "name": "changeTicketPrice",
      "outputs": [],
      "stateMutability": "nonpayable",
      "type": "function"
    },
    {
      "inputs": [],
      "name": "createLottery",
      "outputs": [],
      "stateMutability": "nonpayable",
      "type": "function"
    },
    {
      "inputs": [
        {
          "internalType": "uint256",
          "name": "_lotteryId",
          "type": "uint256"
        }
      ],
      "name": "declareWinner",
      "outputs": [],
      "stateMutability": "nonpayable",
      "type": "function"
    },
    {
      "inputs": [],
      "name": "fees",
      "outputs": [
        {
          "internalType": "uint256",
          "name": "",
          "type": "uint256"
        }
      ],
      "stateMutability": "view",
      "type": "function"
    },
    {
      "inputs": [],
      "name": "getRandomNumber",
      "outputs": [
        {
          "internalType": "uint256",
          "name": "",
          "type": "uint256"
        }
      ],
      "stateMutability": "view",
      "type": "function"
    },
    {
      "inputs": [
        {
          "internalType": "uint256",
          "name": "",
          "type": "uint256"
        }
      ],
      "name": "lotteries",
      "outputs": [
        {
          "internalType": "uint256",
          "name": "lotteryId",
          "type": "uint256"
        },
        {
          "internalType": "uint256",
          "name": "price",
          "type": "uint256"
        },
        {
          "internalType": "uint256",
          "name": "prize",
          "type": "uint256"
        },
        {
          "internalType": "uint256",
          "name": "drawTime",
          "type": "uint256"
        },
        {
          "internalType": "address",
          "name": "winner",
          "type": "address"
        }
      ],
      "stateMutability": "view",
      "type": "function"
    },
    {
      "inputs": [],
      "name": "lotteryDrawnWaitTime",
      "outputs": [
        {
          "internalType": "uint256",
          "name": "",
          "type": "uint256"
        }
      ],
      "stateMutability": "view",
      "type": "function"
    },
    {
      "inputs": [],
      "name": "lotteryId",
      "outputs": [
        {
          "internalType": "uint256",
          "name": "_value",
          "type": "uint256"
        }
      ],
      "stateMutability": "view",
      "type": "function"
    },
    {
      "inputs": [],
      "name": "manager1",
      "outputs": [
        {
          "internalType": "address",
          "name": "",
          "type": "address"
        }
      ],
      "stateMutability": "view",
      "type": "function"
    },
    {
      "inputs": [],
      "name": "manager2",
      "outputs": [
        {
          "internalType": "address",
          "name": "",
          "type": "address"
        }
      ],
      "stateMutability": "view",
      "type": "function"
    },
    {
      "inputs": [],
      "name": "owner",
      "outputs": [
        {
          "internalType": "address payable",
          "name": "",
          "type": "address"
        }
      ],
      "stateMutability": "view",
      "type": "function"
    },
    {
      "inputs": [
        {
          "internalType": "uint256",
          "name": "",
          "type": "uint256"
        },
        {
          "internalType": "address",
          "name": "",
          "type": "address"
        }
      ],
      "name": "partPerPlayer",
      "outputs": [
        {
          "internalType": "uint256",
          "name": "",
          "type": "uint256"
        }
      ],
      "stateMutability": "view",
      "type": "function"
    },
    {
      "inputs": [
        {
          "internalType": "uint256",
          "name": "_lotteryId",
          "type": "uint256"
        },
        {
          "internalType": "uint256",
          "name": "noTickets",
          "type": "uint256"
        }
      ],
      "name": "participate",
      "outputs": [],
      "stateMutability": "payable",
      "type": "function"
    },
    {
      "inputs": [],
      "name": "prevDrawnLottery",
      "outputs": [
        {
          "internalType": "uint256",
          "name": "lotteryId",
          "type": "uint256"
        },
        {
          "internalType": "uint256",
          "name": "price",
          "type": "uint256"
        },
        {
          "internalType": "uint256",
          "name": "prize",
          "type": "uint256"
        },
        {
          "internalType": "uint256",
          "name": "drawTime",
          "type": "uint256"
        },
        {
          "internalType": "address",
          "name": "winner",
          "type": "address"
        }
      ],
      "stateMutability": "view",
      "type": "function"
    },
    {
      "inputs": [],
      "name": "token",
      "outputs": [
        {
          "internalType": "contract IERC20",
          "name": "",
          "type": "address"
        }
      ],
      "stateMutability": "view",
      "type": "function"
    },
    {
      "inputs": [],
      "name": "withdrawUsageFees",
      "outputs": [],
      "stateMutability": "nonpayable",
      "type": "function"
    }
  ],
  "bytecode": "0x60806040523480156200001157600080fd5b5060405162001d2038038062001d20833981810160405281019062000037919062000236565b84600160006101000a81548173ffffffffffffffffffffffffffffffffffffffff021916908373ffffffffffffffffffffffffffffffffffffffff160217905550806000806101000a81548173ffffffffffffffffffffffffffffffffffffffff021916908373ffffffffffffffffffffffffffffffffffffffff16021790555083600260006101000a81548173ffffffffffffffffffffffffffffffffffffffff021916908373ffffffffffffffffffffffffffffffffffffffff16021790555082600360006101000a81548173ffffffffffffffffffffffffffffffffffffffff021916908373ffffffffffffffffffffffffffffffffffffffff16021790555081600e819055505050505050620002be565b600080fd5b600073ffffffffffffffffffffffffffffffffffffffff82169050919050565b60006200017e8262000151565b9050919050565b620001908162000171565b81146200019c57600080fd5b50565b600081519050620001b08162000185565b92915050565b6000819050919050565b620001cb81620001b6565b8114620001d757600080fd5b50565b600081519050620001eb81620001c0565b92915050565b6000620001fe8262000171565b9050919050565b6200021081620001f1565b81146200021c57600080fd5b50565b600081519050620002308162000205565b92915050565b600080600080600060a086880312156200025557620002546200014c565b5b600062000265888289016200019f565b955050602062000278888289016200019f565b94505060406200028b888289016200019f565b93505060606200029e88828901620001da565b9250506080620002b1888289016200021f565b9150509295509295909350565b611a5280620002ce6000396000f3fe6080604052600436106100f25760003560e01c806395f6beb11161008a578063e580f47b11610059578063e580f47b146102fc578063ea660a2414610327578063f621d8971461033e578063fc0c546a1461036d576100f2565b806395f6beb1146102665780639af1d35a1461028f578063cf91eadc146102ba578063dbdff2c1146102d1576100f2565b80635742f1b1116100c65780635742f1b1146101a85780636f7f461d146101e557806377acbb22146102105780638da5cb5b1461023b576100f2565b8062c2943c146100f7578063129874aa146101205780631398e0761461013c57806342c7a7a51461017d575b600080fd5b34801561010357600080fd5b5061011e60048036038101906101199190611228565b610398565b005b61013a60048036038101906101359190611255565b6107df565b005b34801561014857600080fd5b50610163600480360381019061015e9190611228565b610acc565b6040516101749594939291906112e5565b60405180910390f35b34801561018957600080fd5b50610192610b22565b60405161019f9190611338565b60405180910390f35b3480156101b457600080fd5b506101cf60048036038101906101ca919061137f565b610b28565b6040516101dc9190611338565b60405180910390f35b3480156101f157600080fd5b506101fa610b4d565b60405161020791906113bf565b60405180910390f35b34801561021c57600080fd5b50610225610b73565b60405161023291906113bf565b60405180910390f35b34801561024757600080fd5b50610250610b99565b60405161025d91906113fb565b60405180910390f35b34801561027257600080fd5b5061028d60048036038101906102889190611255565b610bbf565b005b34801561029b57600080fd5b506102a4610cb1565b6040516102b19190611338565b60405180910390f35b3480156102c657600080fd5b506102cf610cb7565b005b3480156102dd57600080fd5b506102e6610db4565b6040516102f39190611338565b60405180910390f35b34801561030857600080fd5b50610311610e09565b60405161031e9190611338565b60405180910390f35b34801561033357600080fd5b5061033c610e15565b005b34801561034a57600080fd5b5061035361103c565b6040516103649594939291906112e5565b60405180910390f35b34801561037957600080fd5b50610382611080565b60405161038f9190611475565b60405180910390f35b600160009054906101000a900473ffffffffffffffffffffffffffffffffffffffff1673ffffffffffffffffffffffffffffffffffffffff163373ffffffffffffffffffffffffffffffffffffffff1614806104415750600260009054906101000a900473ffffffffffffffffffffffffffffffffffffffff1673ffffffffffffffffffffffffffffffffffffffff163373ffffffffffffffffffffffffffffffffffffffff16145b806104995750600360009054906101000a900473ffffffffffffffffffffffffffffffffffffffff1673ffffffffffffffffffffffffffffffffffffffff163373ffffffffffffffffffffffffffffffffffffffff16145b6104d8576040517f08c379a00000000000000000000000000000000000000000000000000000000081526004016104cf90611513565b60405180910390fd5b600060066000838152602001908152602001600020905060006008600301541461055d576001600e5461050b9190611562565b60086003015461051b91906115a4565b421161055c576040517f08c379a000000000000000000000000000000000000000000000000000000000815260040161055390611624565b60405180910390fd5b5b42816003018190555060008160040180549050610578610db4565b6105829190611673565b9050600082600401828154811061059c5761059b6116a4565b5b9060005260206000200160009054906101000a900473ffffffffffffffffffffffffffffffffffffffff169050808360050160006101000a81548173ffffffffffffffffffffffffffffffffffffffff021916908373ffffffffffffffffffffffffffffffffffffffff16021790555060008054906101000a900473ffffffffffffffffffffffffffffffffffffffff1673ffffffffffffffffffffffffffffffffffffffff1663a9059cbb8285600201546040518363ffffffff1660e01b815260040161066b9291906116f4565b6020604051808303816000875af115801561068a573d6000803e3d6000fd5b505050506040513d601f19601f820116820180604052508101906106ae9190611755565b508260086000820154816000015560018201548160010155600282015481600201556003820154816003015560048201816004019080546106f09291906110f4565b506005820160009054906101000a900473ffffffffffffffffffffffffffffffffffffffff168160050160006101000a81548173ffffffffffffffffffffffffffffffffffffffff021916908373ffffffffffffffffffffffffffffffffffffffff1602179055509050507f207ef5e248715aa5ca7ffe59b1cc19af07cb705701314fa131d97f5a379e78bf846001600e5461078c9190611562565b4261079791906115a4565b85600201548660050160009054906101000a900473ffffffffffffffffffffffffffffffffffffffff166040516107d19493929190611782565b60405180910390a150505050565b600060066000848152602001908152602001600020905060008054906101000a900473ffffffffffffffffffffffffffffffffffffffff1673ffffffffffffffffffffffffffffffffffffffff166323b872dd333061084b8686600101546110a490919063ffffffff16565b6040518463ffffffff1660e01b8152600401610869939291906117c7565b6020604051808303816000875af1158015610888573d6000803e3d6000fd5b505050506040513d601f19601f820116820180604052508101906108ac9190611755565b6108eb576040517f08c379a00000000000000000000000000000000000000000000000000000000081526004016108e290611870565b60405180910390fd5b60005b8281101561096e5781600401339080600181540180825580915050600190039060005260206000200160009091909190916101000a81548173ffffffffffffffffffffffffffffffffffffffff021916908373ffffffffffffffffffffffffffffffffffffffff160217905550808061096690611890565b9150506108ee565b506109ac606461099e605f6109908686600101546110a490919063ffffffff16565b6110a490919063ffffffff16565b6110ba90919063ffffffff16565b8160020160008282546109bf91906115a4565b92505081905550610a0360646109f560056109e78686600101546110a490919063ffffffff16565b6110a490919063ffffffff16565b6110ba90919063ffffffff16565b60056000828254610a1491906115a4565b9250508190555081600760008360000154815260200190815260200160002060003373ffffffffffffffffffffffffffffffffffffffff1673ffffffffffffffffffffffffffffffffffffffff1681526020019081526020016000206000828254610a7f91906115a4565b925050819055507f3460c8d6fb8c7c026376232c36402d8f009c3bacafe6ff1f69dfce59fa9c096781600001548260020154604051610abf9291906118d8565b60405180910390a1505050565b60066020528060005260406000206000915090508060000154908060010154908060020154908060030154908060050160009054906101000a900473ffffffffffffffffffffffffffffffffffffffff16905085565b600e5481565b6007602052816000526040600020602052806000526040600020600091509150505481565b600260009054906101000a900473ffffffffffffffffffffffffffffffffffffffff1681565b600360009054906101000a900473ffffffffffffffffffffffffffffffffffffffff1681565b600160009054906101000a900473ffffffffffffffffffffffffffffffffffffffff1681565b600160009054906101000a900473ffffffffffffffffffffffffffffffffffffffff1673ffffffffffffffffffffffffffffffffffffffff163373ffffffffffffffffffffffffffffffffffffffff1614610c4f576040517f08c379a0000000000000000000000000000000000000000000000000000000008152600401610c4690611973565b60405180910390fd5b60006006600084815260200190815260200160002090508181600101819055507f57d446212566721b477f8be270fc0ad44e76be62c8ec42ea5be51cb5c63b504f838260010154604051610ca49291906118d8565b60405180910390a1505050565b60055481565b600160009054906101000a900473ffffffffffffffffffffffffffffffffffffffff1673ffffffffffffffffffffffffffffffffffffffff163373ffffffffffffffffffffffffffffffffffffffff1614610d47576040517f08c379a0000000000000000000000000000000000000000000000000000000008152600401610d3e90611973565b60405180910390fd5b600160009054906101000a900473ffffffffffffffffffffffffffffffffffffffff1673ffffffffffffffffffffffffffffffffffffffff166108fc6005549081150290604051600060405180830381858888f19350505050158015610db1573d6000803e3d6000fd5b50565b6000600160009054906101000a900473ffffffffffffffffffffffffffffffffffffffff1642604051602001610deb929190611993565b6040516020818303038152906040528051906020012060001c905090565b60048060000154905081565b600160009054906101000a900473ffffffffffffffffffffffffffffffffffffffff1673ffffffffffffffffffffffffffffffffffffffff163373ffffffffffffffffffffffffffffffffffffffff1614610ea5576040517f08c379a0000000000000000000000000000000000000000000000000000000008152600401610e9c90611973565b60405180910390fd5b60006040518060c00160405280610ebc60046110d0565b8152602001601481526020016000815260200160008152602001600067ffffffffffffffff811115610ef157610ef06119bc565b5b604051908082528060200260200182016040528015610f1f5781602001602082028036833780820191505090505b508152602001600073ffffffffffffffffffffffffffffffffffffffff1681525090508060066000610f5160046110d0565b8152602001908152602001600020600082015181600001556020820151816001015560408201518160020155606082015181600301556080820151816004019080519060200190610fa3929190611146565b5060a08201518160050160006101000a81548173ffffffffffffffffffffffffffffffffffffffff021916908373ffffffffffffffffffffffffffffffffffffffff160217905550905050610ff860046110de565b7f47fd7f728dd62fa82686e732a84ce6c7b0ea5222a999c539c4594d7d57966e70816000015182602001516040516110319291906118d8565b60405180910390a150565b60088060000154908060010154908060020154908060030154908060050160009054906101000a900473ffffffffffffffffffffffffffffffffffffffff16905085565b60008054906101000a900473ffffffffffffffffffffffffffffffffffffffff1681565b600081836110b29190611562565b905092915050565b600081836110c891906119eb565b905092915050565b600081600001549050919050565b6001816000016000828254019250508190555050565b8280548282559060005260206000209081019282156111355760005260206000209182015b82811115611134578254825591600101919060010190611119565b5b50905061114291906111d0565b5090565b8280548282559060005260206000209081019282156111bf579160200282015b828111156111be5782518260006101000a81548173ffffffffffffffffffffffffffffffffffffffff021916908373ffffffffffffffffffffffffffffffffffffffff16021790555091602001919060010190611166565b5b5090506111cc91906111d0565b5090565b5b808211156111e95760008160009055506001016111d1565b5090565b600080fd5b6000819050919050565b611205816111f2565b811461121057600080fd5b50565b600081359050611222816111fc565b92915050565b60006020828403121561123e5761123d6111ed565b5b600061124c84828501611213565b91505092915050565b6000806040838503121561126c5761126b6111ed565b5b600061127a85828601611213565b925050602061128b85828601611213565b9150509250929050565b61129e816111f2565b82525050565b600073ffffffffffffffffffffffffffffffffffffffff82169050919050565b60006112cf826112a4565b9050919050565b6112df816112c4565b82525050565b600060a0820190506112fa6000830188611295565b6113076020830187611295565b6113146040830186611295565b6113216060830185611295565b61132e60808301846112d6565b9695505050505050565b600060208201905061134d6000830184611295565b92915050565b61135c816112c4565b811461136757600080fd5b50565b60008135905061137981611353565b92915050565b60008060408385031215611396576113956111ed565b5b60006113a485828601611213565b92505060206113b58582860161136a565b9150509250929050565b60006020820190506113d460008301846112d6565b92915050565b60006113e5826112a4565b9050919050565b6113f5816113da565b82525050565b600060208201905061141060008301846113ec565b92915050565b6000819050919050565b600061143b611436611431846112a4565b611416565b6112a4565b9050919050565b600061144d82611420565b9050919050565b600061145f82611442565b9050919050565b61146f81611454565b82525050565b600060208201905061148a6000830184611466565b92915050565b600082825260208201905092915050565b7f4f6e6c79204f776e657220616e64206d61616e676572732063616e2063616c6c60008201527f20746869732066756e6374696f6e000000000000000000000000000000000000602082015250565b60006114fd602e83611490565b9150611508826114a1565b604082019050919050565b6000602082019050818103600083015261152c816114f0565b9050919050565b7f4e487b7100000000000000000000000000000000000000000000000000000000600052601160045260246000fd5b600061156d826111f2565b9150611578836111f2565b9250828202611586816111f2565b9150828204841483151761159d5761159c611533565b5b5092915050565b60006115af826111f2565b91506115ba836111f2565b92508282019050808211156115d2576115d1611533565b5b92915050565b7f4265666f726520647261772054696d6520667265657a65000000000000000000600082015250565b600061160e601783611490565b9150611619826115d8565b602082019050919050565b6000602082019050818103600083015261163d81611601565b9050919050565b7f4e487b7100000000000000000000000000000000000000000000000000000000600052601260045260246000fd5b600061167e826111f2565b9150611689836111f2565b92508261169957611698611644565b5b828206905092915050565b7f4e487b7100000000000000000000000000000000000000000000000000000000600052603260045260246000fd5b60006116de82611442565b9050919050565b6116ee816116d3565b82525050565b600060408201905061170960008301856116e5565b6117166020830184611295565b9392505050565b60008115159050919050565b6117328161171d565b811461173d57600080fd5b50565b60008151905061174f81611729565b92915050565b60006020828403121561176b5761176a6111ed565b5b600061177984828501611740565b91505092915050565b60006080820190506117976000830187611295565b6117a46020830186611295565b6117b16040830185611295565b6117be60608301846112d6565b95945050505050565b60006060820190506117dc60008301866112d6565b6117e960208301856112d6565b6117f66040830184611295565b949350505050565b7f56616c7565206d75737420626520657175616c20746f207469636b657420707260008201527f6963650000000000000000000000000000000000000000000000000000000000602082015250565b600061185a602383611490565b9150611865826117fe565b604082019050919050565b600060208201905081810360008301526118898161184d565b9050919050565b600061189b826111f2565b91507fffffffffffffffffffffffffffffffffffffffffffffffffffffffffffffffff82036118cd576118cc611533565b5b600182019050919050565b60006040820190506118ed6000830185611295565b6118fa6020830184611295565b9392505050565b7f4f6e6c792061646d696e2063616e2063616c6c20746869732066756e6374696f60008201527f6e00000000000000000000000000000000000000000000000000000000000000602082015250565b600061195d602183611490565b915061196882611901565b604082019050919050565b6000602082019050818103600083015261198c81611950565b9050919050565b60006040820190506119a860008301856113ec565b6119b56020830184611295565b9392505050565b7f4e487b7100000000000000000000000000000000000000000000000000000000600052604160045260246000fd5b60006119f6826111f2565b9150611a01836111f2565b925082611a1157611a10611644565b5b82820490509291505056fea2646970667358221220f05fb050a4d78ef18ce657a8ee70e7e3bd0f0dee12ee9e560a8bcd9bbfcff38364736f6c63430008110033",
  "linkReferences": {},
  "deployedLinkReferences": {}
}